{
  "_format": "hh-sol-artifact-1",
  "contractName": "Wave3",
  "sourceName": "contracts/wave-3.sol",
  "abi": [
    {
      "inputs": [],
      "stateMutability": "nonpayable",
      "type": "constructor"
    },
    {
      "inputs": [],
      "name": "getSenderWaves",
      "outputs": [
        {
          "internalType": "uint256",
          "name": "",
          "type": "uint256"
        }
      ],
      "stateMutability": "view",
      "type": "function"
    },
    {
      "inputs": [],
      "name": "getTopWavers",
      "outputs": [
        {
          "internalType": "address[]",
          "name": "",
          "type": "address[]"
        },
        {
          "internalType": "uint256[]",
          "name": "",
          "type": "uint256[]"
        }
      ],
      "stateMutability": "view",
      "type": "function"
    },
    {
      "inputs": [],
      "name": "getTotalWaves",
      "outputs": [
        {
          "internalType": "uint256",
          "name": "",
          "type": "uint256"
        }
      ],
      "stateMutability": "view",
      "type": "function"
    },
    {
      "inputs": [],
      "name": "wave",
      "outputs": [],
      "stateMutability": "nonpayable",
      "type": "function"
    }
  ],
  "bytecode": "0x60806040523480156200001157600080fd5b506200005d6040518060400160405280600e81526020017f576176653320436f6e74726163740000000000000000000000000000000000008152506200006360201b6200064d1760201c565b620001ed565b62000103816040516024016200007a9190620001c9565b6040516020818303038152906040527f41304fac000000000000000000000000000000000000000000000000000000007bffffffffffffffffffffffffffffffffffffffffffffffffffffffff19166020820180517bffffffffffffffffffffffffffffffffffffffffffffffffffffffff83818316178352505050506200010660201b60201c565b50565b60008151905060006a636f6e736f6c652e6c6f679050602083016000808483855afa5050505050565b600081519050919050565b600082825260208201905092915050565b60005b838110156200016b5780820151818401526020810190506200014e565b60008484015250505050565b6000601f19601f8301169050919050565b600062000195826200012f565b620001a181856200013a565b9350620001b38185602086016200014b565b620001be8162000177565b840191505092915050565b60006020820190508181036000830152620001e5818462000188565b905092915050565b61114480620001fd6000396000f3fe608060405234801561001057600080fd5b506004361061004c5760003560e01c80636fe15b44146100515780639a2cdc081461005b578063eb847cec14610079578063f7091d5114610098575b600080fd5b6100596100b6565b005b61006361028f565b6040516100709190610b94565b60405180910390f35b6100816102da565b60405161008f929190610d5d565b60405180910390f35b6100a0610582565b6040516100ad9190610b94565b60405180910390f35b62015180426100c59190610dc3565b600160003373ffffffffffffffffffffffffffffffffffffffff1673ffffffffffffffffffffffffffffffffffffffff1681526020019081526020016000206001015410610148576040517f08c379a000000000000000000000000000000000000000000000000000000000815260040161013f90610e7a565b60405180910390fd5b600160008082825461015a9190610e9a565b9250508190555060018060003373ffffffffffffffffffffffffffffffffffffffff1673ffffffffffffffffffffffffffffffffffffffff16815260200190815260200160002060000160008282546101b39190610e9a565b9250508190555042600160003373ffffffffffffffffffffffffffffffffffffffff1673ffffffffffffffffffffffffffffffffffffffff168152602001908152602001600020600101819055506102416040518060400160405280601381526020017f257320686173207761766564202120282564290000000000000000000000000081525033426106e6565b61028d33600160003373ffffffffffffffffffffffffffffffffffffffff1673ffffffffffffffffffffffffffffffffffffffff16815260200190815260200160002060000154610785565b565b60006102d26040518060400160405280601881526020017f5765206861766520256420746f74616c20776176657320210000000000000000815250600054610a14565b600054905090565b60608061031b6040518060400160405280600f81526020017f546f7020313020776176657273203a000000000000000000000000000000000081525061064d565b60005b600a811015610406576103f3600282600a811061033e5761033d610ece565b5b6002020160000160009054906101000a900473ffffffffffffffffffffffffffffffffffffffff166040518060400160405280600181526020017f2d00000000000000000000000000000000000000000000000000000000000000815250600284600a81106103b0576103af610ece565b5b60020201600101546040518060400160405280600581526020017f7761766573000000000000000000000000000000000000000000000000000000815250610ab0565b80806103fe90610efd565b91505061031e565b506000600a67ffffffffffffffff81111561042457610423610f45565b5b6040519080825280602002602001820160405280156104525781602001602082028036833780820191505090505b5090506000600a67ffffffffffffffff81111561047257610471610f45565b5b6040519080825280602002602001820160405280156104a05781602001602082028036833780820191505090505b50905060005b600a811015610575576000600282600a81106104c5576104c4610ece565b5b6002020190508060000160009054906101000a900473ffffffffffffffffffffffffffffffffffffffff1684838151811061050357610502610ece565b5b602002602001019073ffffffffffffffffffffffffffffffffffffffff16908173ffffffffffffffffffffffffffffffffffffffff1681525050806001015483838151811061055557610554610ece565b5b60200260200101818152505050808061056d90610efd565b9150506104a6565b5081819350935050509091565b60006106056040518060400160405280601781526020017f53656e6465722077617665642025642074696d65732021000000000000000000815250600160003373ffffffffffffffffffffffffffffffffffffffff1673ffffffffffffffffffffffffffffffffffffffff16815260200190815260200160002060000154610a14565b600160003373ffffffffffffffffffffffffffffffffffffffff1673ffffffffffffffffffffffffffffffffffffffff16815260200190815260200160002060000154905090565b6106e3816040516024016106619190610ff3565b6040516020818303038152906040527f41304fac000000000000000000000000000000000000000000000000000000007bffffffffffffffffffffffffffffffffffffffffffffffffffffffff19166020820180517bffffffffffffffffffffffffffffffffffffffffffffffffffffffff8381831617835250505050610b52565b50565b6107808383836040516024016106fe93929190611024565b6040516020818303038152906040527f0d26b925000000000000000000000000000000000000000000000000000000007bffffffffffffffffffffffffffffffffffffffffffffffffffffffff19166020820180517bffffffffffffffffffffffffffffffffffffffffffffffffffffffff8381831617835250505050610b52565b505050565b60008060005b600a8310156107c957600283600a81106107a8576107a7610ece565b5b600202016001015484116107c95782806107c190610efd565b93505061078b565b600a83106107d957505050610a10565b60005b600a81101561086e578573ffffffffffffffffffffffffffffffffffffffff16600282600a81106108105761080f610ece565b5b6002020160000160009054906101000a900473ffffffffffffffffffffffffffffffffffffffff1673ffffffffffffffffffffffffffffffffffffffff160361085b57600192508091505b808061086690610efd565b9150506107dc565b50600082610889576001600a6108849190610dc3565b61088b565b815b90505b838111156109915760026001826108a59190610dc3565b600a81106108b6576108b5610ece565b5b6002020160000160009054906101000a900473ffffffffffffffffffffffffffffffffffffffff16600282600a81106108f2576108f1610ece565b5b6002020160000160006101000a81548173ffffffffffffffffffffffffffffffffffffffff021916908373ffffffffffffffffffffffffffffffffffffffff16021790555060026001826109469190610dc3565b600a811061095757610956610ece565b5b6002020160010154600282600a811061097357610972610ece565b5b6002020160010181905550808061098990611062565b91505061088e565b5084600284600a81106109a7576109a6610ece565b5b6002020160000160006101000a81548173ffffffffffffffffffffffffffffffffffffffff021916908373ffffffffffffffffffffffffffffffffffffffff16021790555083600284600a8110610a0157610a00610ece565b5b60020201600101819055505050505b5050565b610aac8282604051602401610a2a92919061108b565b6040516020818303038152906040527fb60e72cc000000000000000000000000000000000000000000000000000000007bffffffffffffffffffffffffffffffffffffffffffffffffffffffff19166020820180517bffffffffffffffffffffffffffffffffffffffffffffffffffffffff8381831617835250505050610b52565b5050565b610b4c84848484604051602401610aca94939291906110bb565b6040516020818303038152906040527f448830a8000000000000000000000000000000000000000000000000000000007bffffffffffffffffffffffffffffffffffffffffffffffffffffffff19166020820180517bffffffffffffffffffffffffffffffffffffffffffffffffffffffff8381831617835250505050610b52565b50505050565b60008151905060006a636f6e736f6c652e6c6f679050602083016000808483855afa5050505050565b6000819050919050565b610b8e81610b7b565b82525050565b6000602082019050610ba96000830184610b85565b92915050565b600081519050919050565b600082825260208201905092915050565b6000819050602082019050919050565b600073ffffffffffffffffffffffffffffffffffffffff82169050919050565b6000610c0682610bdb565b9050919050565b610c1681610bfb565b82525050565b6000610c288383610c0d565b60208301905092915050565b6000602082019050919050565b6000610c4c82610baf565b610c568185610bba565b9350610c6183610bcb565b8060005b83811015610c92578151610c798882610c1c565b9750610c8483610c34565b925050600181019050610c65565b5085935050505092915050565b600081519050919050565b600082825260208201905092915050565b6000819050602082019050919050565b610cd481610b7b565b82525050565b6000610ce68383610ccb565b60208301905092915050565b6000602082019050919050565b6000610d0a82610c9f565b610d148185610caa565b9350610d1f83610cbb565b8060005b83811015610d50578151610d378882610cda565b9750610d4283610cf2565b925050600181019050610d23565b5085935050505092915050565b60006040820190508181036000830152610d778185610c41565b90508181036020830152610d8b8184610cff565b90509392505050565b7f4e487b7100000000000000000000000000000000000000000000000000000000600052601160045260246000fd5b6000610dce82610b7b565b9150610dd983610b7b565b9250828203905081811115610df157610df0610d94565b5b92915050565b600082825260208201905092915050565b7f596f7520616c726561647920776176656420696e20746865206c61737420323460008201527f20686f7572732e00000000000000000000000000000000000000000000000000602082015250565b6000610e64602783610df7565b9150610e6f82610e08565b604082019050919050565b60006020820190508181036000830152610e9381610e57565b9050919050565b6000610ea582610b7b565b9150610eb083610b7b565b9250828201905080821115610ec857610ec7610d94565b5b92915050565b7f4e487b7100000000000000000000000000000000000000000000000000000000600052603260045260246000fd5b6000610f0882610b7b565b91507fffffffffffffffffffffffffffffffffffffffffffffffffffffffffffffffff8203610f3a57610f39610d94565b5b600182019050919050565b7f4e487b7100000000000000000000000000000000000000000000000000000000600052604160045260246000fd5b600081519050919050565b60005b83811015610f9d578082015181840152602081019050610f82565b60008484015250505050565b6000601f19601f8301169050919050565b6000610fc582610f74565b610fcf8185610df7565b9350610fdf818560208601610f7f565b610fe881610fa9565b840191505092915050565b6000602082019050818103600083015261100d8184610fba565b905092915050565b61101e81610bfb565b82525050565b6000606082019050818103600083015261103e8186610fba565b905061104d6020830185611015565b61105a6040830184610b85565b949350505050565b600061106d82610b7b565b9150600082036110805761107f610d94565b5b600182039050919050565b600060408201905081810360008301526110a58185610fba565b90506110b46020830184610b85565b9392505050565b60006080820190506110d06000830187611015565b81810360208301526110e28186610fba565b90506110f16040830185610b85565b81810360608301526111038184610fba565b90509594505050505056fea26469706673582212203c9f280b0771a6d754795060200959510184681689a6b337925a1928514c251e64736f6c63430008110033",
  "linkReferences": {},
  "deployedLinkReferences": {}
}