{
  "_format": "hh-sol-artifact-1",
  "contractName": "Wave3",
  "sourceName": "contracts/wave-3.sol",
  "abi": [
    {
      "inputs": [],
      "stateMutability": "nonpayable",
      "type": "constructor"
    },
    {
      "inputs": [],
      "name": "getSenderWavesCount",
      "outputs": [
        {
          "internalType": "uint256",
          "name": "",
          "type": "uint256"
        }
      ],
      "stateMutability": "view",
      "type": "function"
    },
    {
      "inputs": [],
      "name": "getTopWavers",
      "outputs": [
        {
          "internalType": "address[]",
          "name": "",
          "type": "address[]"
        },
        {
          "internalType": "uint256[]",
          "name": "",
          "type": "uint256[]"
        }
      ],
      "stateMutability": "view",
      "type": "function"
    },
    {
      "inputs": [],
      "name": "getTotalWavesCount",
      "outputs": [
        {
          "internalType": "uint256",
          "name": "",
          "type": "uint256"
        }
      ],
      "stateMutability": "view",
      "type": "function"
    },
    {
      "inputs": [],
      "name": "getWaves",
      "outputs": [
        {
          "components": [
            {
              "internalType": "address",
              "name": "waverAddr",
              "type": "address"
            },
            {
              "internalType": "uint256",
              "name": "timestamp",
              "type": "uint256"
            }
          ],
          "internalType": "struct Wave3.Wave[]",
          "name": "",
          "type": "tuple[]"
        }
      ],
      "stateMutability": "view",
      "type": "function"
    },
    {
      "inputs": [],
      "name": "wave",
      "outputs": [],
      "stateMutability": "nonpayable",
      "type": "function"
    }
  ],
  "bytecode": "0x60806040523480156200001157600080fd5b506200005d6040518060400160405280600e81526020017f576176653320436f6e74726163740000000000000000000000000000000000008152506200006360201b620005b21760201c565b620001ed565b62000103816040516024016200007a9190620001c9565b6040516020818303038152906040527f41304fac000000000000000000000000000000000000000000000000000000007bffffffffffffffffffffffffffffffffffffffffffffffffffffffff19166020820180517bffffffffffffffffffffffffffffffffffffffffffffffffffffffff83818316178352505050506200010660201b60201c565b50565b60008151905060006a636f6e736f6c652e6c6f679050602083016000808483855afa5050505050565b600081519050919050565b600082825260208201905092915050565b60005b838110156200016b5780820151818401526020810190506200014e565b60008484015250505050565b6000601f19601f8301169050919050565b600062000195826200012f565b620001a181856200013a565b9350620001b38185602086016200014b565b620001be8162000177565b840191505092915050565b60006020820190508181036000830152620001e5818462000188565b905092915050565b610f2280620001fd6000396000f3fe608060405234801561001057600080fd5b50600436106100575760003560e01c8063084c623a1461005c5780636fe15b441461007a5780639d9e7ef514610084578063a9d42f7e146100a2578063eb847cec146100c0575b600080fd5b6100646100df565b604051610071919061091c565b60405180910390f35b610082610129565b005b61008c61036c565b604051610099919061091c565b60405180910390f35b6100aa610375565b6040516100b79190610a65565b60405180910390f35b6100c8610434565b6040516100d6929190610be5565b60405180910390f35b6000600260003373ffffffffffffffffffffffffffffffffffffffff1673ffffffffffffffffffffffffffffffffffffffff16815260200190815260200160002060000154905090565b62015180426101389190610c4b565b600260003373ffffffffffffffffffffffffffffffffffffffff1673ffffffffffffffffffffffffffffffffffffffff16815260200190815260200160002060010154106101bb576040517f08c379a00000000000000000000000000000000000000000000000000000000081526004016101b290610d28565b60405180910390fd5b600160405180604001604052803373ffffffffffffffffffffffffffffffffffffffff16815260200142815250908060018154018082558091505060019003906000526020600020906002020160009091909190915060008201518160000160006101000a81548173ffffffffffffffffffffffffffffffffffffffff021916908373ffffffffffffffffffffffffffffffffffffffff16021790555060208201518160010155505060016000808282546102769190610d48565b925050819055506001600260003373ffffffffffffffffffffffffffffffffffffffff1673ffffffffffffffffffffffffffffffffffffffff16815260200190815260200160002060000160008282546102d09190610d48565b9250508190555042600260003373ffffffffffffffffffffffffffffffffffffffff1673ffffffffffffffffffffffffffffffffffffffff1681526020019081526020016000206001018190555061036a33600260003373ffffffffffffffffffffffffffffffffffffffff1673ffffffffffffffffffffffffffffffffffffffff1681526020019081526020016000206000015461064b565b565b60008054905090565b60606001805480602002602001604051908101604052809291908181526020016000905b8282101561042b57838290600052602060002090600202016040518060400160405290816000820160009054906101000a900473ffffffffffffffffffffffffffffffffffffffff1673ffffffffffffffffffffffffffffffffffffffff1673ffffffffffffffffffffffffffffffffffffffff16815260200160018201548152505081526020019060010190610399565b50505050905090565b6060806000600a67ffffffffffffffff81111561045457610453610d7c565b5b6040519080825280602002602001820160405280156104825781602001602082028036833780820191505090505b5090506000600a67ffffffffffffffff8111156104a2576104a1610d7c565b5b6040519080825280602002602001820160405280156104d05781602001602082028036833780820191505090505b50905060005b600a8110156105a5576000600382600a81106104f5576104f4610dab565b5b6002020190508060000160009054906101000a900473ffffffffffffffffffffffffffffffffffffffff1684838151811061053357610532610dab565b5b602002602001019073ffffffffffffffffffffffffffffffffffffffff16908173ffffffffffffffffffffffffffffffffffffffff1681525050806001015483838151811061058557610584610dab565b5b60200260200101818152505050808061059d90610dda565b9150506104d6565b5081819350935050509091565b610648816040516024016105c69190610ea1565b6040516020818303038152906040527f41304fac000000000000000000000000000000000000000000000000000000007bffffffffffffffffffffffffffffffffffffffffffffffffffffffff19166020820180517bffffffffffffffffffffffffffffffffffffffffffffffffffffffff83818316178352505050506108da565b50565b60008060005b600a83101561068f57600383600a811061066e5761066d610dab565b5b6002020160010154841161068f57828061068790610dda565b935050610651565b600a831061069f575050506108d6565b60005b600a811015610734578573ffffffffffffffffffffffffffffffffffffffff16600382600a81106106d6576106d5610dab565b5b6002020160000160009054906101000a900473ffffffffffffffffffffffffffffffffffffffff1673ffffffffffffffffffffffffffffffffffffffff160361072157600192508091505b808061072c90610dda565b9150506106a2565b5060008261074f576001600a61074a9190610c4b565b610751565b815b90505b8381111561085757600360018261076b9190610c4b565b600a811061077c5761077b610dab565b5b6002020160000160009054906101000a900473ffffffffffffffffffffffffffffffffffffffff16600382600a81106107b8576107b7610dab565b5b6002020160000160006101000a81548173ffffffffffffffffffffffffffffffffffffffff021916908373ffffffffffffffffffffffffffffffffffffffff160217905550600360018261080c9190610c4b565b600a811061081d5761081c610dab565b5b6002020160010154600382600a811061083957610838610dab565b5b6002020160010181905550808061084f90610ec3565b915050610754565b5084600384600a811061086d5761086c610dab565b5b6002020160000160006101000a81548173ffffffffffffffffffffffffffffffffffffffff021916908373ffffffffffffffffffffffffffffffffffffffff16021790555083600384600a81106108c7576108c6610dab565b5b60020201600101819055505050505b5050565b60008151905060006a636f6e736f6c652e6c6f679050602083016000808483855afa5050505050565b6000819050919050565b61091681610903565b82525050565b6000602082019050610931600083018461090d565b92915050565b600081519050919050565b600082825260208201905092915050565b6000819050602082019050919050565b600073ffffffffffffffffffffffffffffffffffffffff82169050919050565b600061098e82610963565b9050919050565b61099e81610983565b82525050565b6109ad81610903565b82525050565b6040820160008201516109c96000850182610995565b5060208201516109dc60208501826109a4565b50505050565b60006109ee83836109b3565b60408301905092915050565b6000602082019050919050565b6000610a1282610937565b610a1c8185610942565b9350610a2783610953565b8060005b83811015610a58578151610a3f88826109e2565b9750610a4a836109fa565b925050600181019050610a2b565b5085935050505092915050565b60006020820190508181036000830152610a7f8184610a07565b905092915050565b600081519050919050565b600082825260208201905092915050565b6000819050602082019050919050565b6000610abf8383610995565b60208301905092915050565b6000602082019050919050565b6000610ae382610a87565b610aed8185610a92565b9350610af883610aa3565b8060005b83811015610b29578151610b108882610ab3565b9750610b1b83610acb565b925050600181019050610afc565b5085935050505092915050565b600081519050919050565b600082825260208201905092915050565b6000819050602082019050919050565b6000610b6e83836109a4565b60208301905092915050565b6000602082019050919050565b6000610b9282610b36565b610b9c8185610b41565b9350610ba783610b52565b8060005b83811015610bd8578151610bbf8882610b62565b9750610bca83610b7a565b925050600181019050610bab565b5085935050505092915050565b60006040820190508181036000830152610bff8185610ad8565b90508181036020830152610c138184610b87565b90509392505050565b7f4e487b7100000000000000000000000000000000000000000000000000000000600052601160045260246000fd5b6000610c5682610903565b9150610c6183610903565b9250828203905081811115610c7957610c78610c1c565b5b92915050565b600082825260208201905092915050565b7f596f7520616c7265616479207761766564206174206d6520696e20746865206c60008201527f61737420323420686f7572732e20506c65617365207265747279206c6174657260208201527f2021000000000000000000000000000000000000000000000000000000000000604082015250565b6000610d12604283610c7f565b9150610d1d82610c90565b606082019050919050565b60006020820190508181036000830152610d4181610d05565b9050919050565b6000610d5382610903565b9150610d5e83610903565b9250828201905080821115610d7657610d75610c1c565b5b92915050565b7f4e487b7100000000000000000000000000000000000000000000000000000000600052604160045260246000fd5b7f4e487b7100000000000000000000000000000000000000000000000000000000600052603260045260246000fd5b6000610de582610903565b91507fffffffffffffffffffffffffffffffffffffffffffffffffffffffffffffffff8203610e1757610e16610c1c565b5b600182019050919050565b600081519050919050565b60005b83811015610e4b578082015181840152602081019050610e30565b60008484015250505050565b6000601f19601f8301169050919050565b6000610e7382610e22565b610e7d8185610c7f565b9350610e8d818560208601610e2d565b610e9681610e57565b840191505092915050565b60006020820190508181036000830152610ebb8184610e68565b905092915050565b6000610ece82610903565b915060008203610ee157610ee0610c1c565b5b60018203905091905056fea26469706673582212201c83c3fa8ed0be12aa15b0e9b21274ec33e20b49bbf0359f18c8304cf124942e64736f6c63430008110033",
  "linkReferences": {},
  "deployedLinkReferences": {}
}