{
  "_format": "hh-sol-artifact-1",
  "contractName": "Wave3",
  "sourceName": "contracts/wave-3.sol",
  "abi": [
    {
      "inputs": [],
      "stateMutability": "nonpayable",
      "type": "constructor"
    },
    {
      "anonymous": false,
      "inputs": [
        {
          "indexed": true,
          "internalType": "address",
          "name": "waverAddr",
          "type": "address"
        },
        {
          "indexed": false,
          "internalType": "uint256",
          "name": "timestamp",
          "type": "uint256"
        }
      ],
      "name": "NewWave",
      "type": "event"
    },
    {
      "inputs": [],
      "name": "getSenderWavesCount",
      "outputs": [
        {
          "internalType": "uint256",
          "name": "",
          "type": "uint256"
        }
      ],
      "stateMutability": "view",
      "type": "function"
    },
    {
      "inputs": [],
      "name": "getTopWavers",
      "outputs": [
        {
          "components": [
            {
              "internalType": "address",
              "name": "addr",
              "type": "address"
            },
            {
              "internalType": "uint256",
              "name": "wavesCount",
              "type": "uint256"
            },
            {
              "internalType": "uint256",
              "name": "lastWaveTimestamp",
              "type": "uint256"
            }
          ],
          "internalType": "struct Wave3.TopWaver[3]",
          "name": "",
          "type": "tuple[3]"
        }
      ],
      "stateMutability": "view",
      "type": "function"
    },
    {
      "inputs": [],
      "name": "getTotalWavesCount",
      "outputs": [
        {
          "internalType": "uint256",
          "name": "",
          "type": "uint256"
        }
      ],
      "stateMutability": "view",
      "type": "function"
    },
    {
      "inputs": [
        {
          "internalType": "uint256",
          "name": "offset",
          "type": "uint256"
        },
        {
          "internalType": "uint256",
          "name": "limit",
          "type": "uint256"
        }
      ],
      "name": "getWaves",
      "outputs": [
        {
          "components": [
            {
              "internalType": "address",
              "name": "waverAddr",
              "type": "address"
            },
            {
              "internalType": "uint256",
              "name": "timestamp",
              "type": "uint256"
            }
          ],
          "internalType": "struct Wave3.Wave[]",
          "name": "",
          "type": "tuple[]"
        }
      ],
      "stateMutability": "view",
      "type": "function"
    },
    {
      "inputs": [],
      "name": "wave",
      "outputs": [],
      "stateMutability": "nonpayable",
      "type": "function"
    }
  ],
  "bytecode": "0x60806040523480156200001157600080fd5b506200005d6040518060400160405280600e81526020017f576176653320436f6e74726163740000000000000000000000000000000000008152506200006360201b620006671760201c565b620001ed565b62000103816040516024016200007a9190620001c9565b6040516020818303038152906040527f41304fac000000000000000000000000000000000000000000000000000000007bffffffffffffffffffffffffffffffffffffffffffffffffffffffff19166020820180517bffffffffffffffffffffffffffffffffffffffffffffffffffffffff83818316178352505050506200010660201b60201c565b50565b60008151905060006a636f6e736f6c652e6c6f679050602083016000808483855afa5050505050565b600081519050919050565b600082825260208201905092915050565b60005b838110156200016b5780820151818401526020810190506200014e565b60008484015250505050565b6000601f19601f8301169050919050565b600062000195826200012f565b620001a181856200013a565b9350620001b38185602086016200014b565b620001be8162000177565b840191505092915050565b60006020820190508181036000830152620001e5818462000188565b905092915050565b610ff180620001fd6000396000f3fe608060405234801561001057600080fd5b50600436106100575760003560e01c8063084c623a1461005c5780636fe15b441461007a5780639d9e7ef514610084578063eb847cec146100a2578063f6275056146100c0575b600080fd5b6100646100f0565b6040516100719190610acd565b60405180910390f35b61008261013a565b005b61008c610362565b6040516100999190610acd565b60405180910390f35b6100aa61036e565b6040516100b79190610c16565b60405180910390f35b6100da60048036038101906100d59190610c63565b61042a565b6040516100e79190610d81565b60405180910390f35b6000600160003373ffffffffffffffffffffffffffffffffffffffff1673ffffffffffffffffffffffffffffffffffffffff16815260200190815260200160002060000154905090565b600060405180604001604052803373ffffffffffffffffffffffffffffffffffffffff16815260200142815250908060018154018082558091505060019003906000526020600020906002020160009091909190915060008201518160000160006101000a81548173ffffffffffffffffffffffffffffffffffffffff021916908373ffffffffffffffffffffffffffffffffffffffff16021790555060208201518160010155505060018060003373ffffffffffffffffffffffffffffffffffffffff1673ffffffffffffffffffffffffffffffffffffffff16815260200190815260200160002060000160008282546102359190610dd2565b9250508190555042600160003373ffffffffffffffffffffffffffffffffffffffff1673ffffffffffffffffffffffffffffffffffffffff1681526020019081526020016000206001018190555061031233600160003373ffffffffffffffffffffffffffffffffffffffff1673ffffffffffffffffffffffffffffffffffffffff16815260200190815260200160002060000154600160003373ffffffffffffffffffffffffffffffffffffffff1673ffffffffffffffffffffffffffffffffffffffff16815260200190815260200160002060010154610700565b3373ffffffffffffffffffffffffffffffffffffffff167fd4039eae27a8bdb2161befb9f8627b7c1427c2515e32d699b7dc252416e719cd426040516103589190610acd565b60405180910390a2565b60008080549050905090565b610376610a20565b6002600380602002604051908101604052809291906000905b82821015610421578382600302016040518060600160405290816000820160009054906101000a900473ffffffffffffffffffffffffffffffffffffffff1673ffffffffffffffffffffffffffffffffffffffff1673ffffffffffffffffffffffffffffffffffffffff168152602001600182015481526020016002820154815250508152602001906001019061038f565b50505050905090565b60608260008054905061043d9190610e06565b82111561045857826000805490506104559190610e06565b91505b6000808054905067ffffffffffffffff81111561047857610477610e3a565b5b6040519080825280602002602001820160405280156104b157816020015b61049e610a4d565b8152602001906001900390816104965790505b509050600080808054905090505b6001811061059f5760006001826104d69190610e06565b815481106104e7576104e6610e69565b5b90600052602060002090600202016040518060400160405290816000820160009054906101000a900473ffffffffffffffffffffffffffffffffffffffff1673ffffffffffffffffffffffffffffffffffffffff1673ffffffffffffffffffffffffffffffffffffffff16815260200160018201548152505083838151811061057357610572610e69565b5b6020026020010181905250818061058990610e98565b925050808061059790610ee0565b9150506104bf565b5060008467ffffffffffffffff8111156105bc576105bb610e3a565b5b6040519080825280602002602001820160405280156105f557816020015b6105e2610a4d565b8152602001906001900390816105da5790505b50905060005b8581101561065a578381886106109190610dd2565b8151811061062157610620610e69565b5b602002602001015182828151811061063c5761063b610e69565b5b6020026020010181905250808061065290610e98565b9150506105fb565b5080935050505092915050565b6106fd8160405160240161067b9190610f99565b6040516020818303038152906040527f41304fac000000000000000000000000000000000000000000000000000000007bffffffffffffffffffffffffffffffffffffffffffffffffffffffff19166020820180517bffffffffffffffffffffffffffffffffffffffffffffffffffffffff83818316178352505050506109f7565b50565b60008060005b6003831015610744576002836003811061072357610722610e69565b5b6003020160010154851161074457828061073c90610e98565b935050610706565b60038310610754575050506109f2565b60005b60038110156107e9578673ffffffffffffffffffffffffffffffffffffffff166002826003811061078b5761078a610e69565b5b6003020160000160009054906101000a900473ffffffffffffffffffffffffffffffffffffffff1673ffffffffffffffffffffffffffffffffffffffff16036107d657600192508091505b80806107e190610e98565b915050610757565b5060008261080457600160036107ff9190610e06565b610806565b815b90505b838111156109535760026001826108209190610e06565b6003811061083157610830610e69565b5b6003020160000160009054906101000a900473ffffffffffffffffffffffffffffffffffffffff166002826003811061086d5761086c610e69565b5b6003020160000160006101000a81548173ffffffffffffffffffffffffffffffffffffffff021916908373ffffffffffffffffffffffffffffffffffffffff16021790555060026001826108c19190610e06565b600381106108d2576108d1610e69565b5b6003020160010154600282600381106108ee576108ed610e69565b5b600302016001018190555060026001826109089190610e06565b6003811061091957610918610e69565b5b60030201600201546002826003811061093557610934610e69565b5b6003020160020181905550808061094b90610ee0565b915050610809565b50856002846003811061096957610968610e69565b5b6003020160000160006101000a81548173ffffffffffffffffffffffffffffffffffffffff021916908373ffffffffffffffffffffffffffffffffffffffff16021790555084600284600381106109c3576109c2610e69565b5b600302016001018190555083600284600381106109e3576109e2610e69565b5b60030201600201819055505050505b505050565b60008151905060006a636f6e736f6c652e6c6f679050602083016000808483855afa5050505050565b60405180606001604052806003905b610a37610a7d565b815260200190600190039081610a2f5790505090565b6040518060400160405280600073ffffffffffffffffffffffffffffffffffffffff168152602001600081525090565b6040518060600160405280600073ffffffffffffffffffffffffffffffffffffffff16815260200160008152602001600081525090565b6000819050919050565b610ac781610ab4565b82525050565b6000602082019050610ae26000830184610abe565b92915050565b600060039050919050565b600081905092915050565b6000819050919050565b600073ffffffffffffffffffffffffffffffffffffffff82169050919050565b6000610b3382610b08565b9050919050565b610b4381610b28565b82525050565b610b5281610ab4565b82525050565b606082016000820151610b6e6000850182610b3a565b506020820151610b816020850182610b49565b506040820151610b946040850182610b49565b50505050565b6000610ba68383610b58565b60608301905092915050565b6000602082019050919050565b610bc881610ae8565b610bd28184610af3565b9250610bdd82610afe565b8060005b83811015610c0e578151610bf58782610b9a565b9650610c0083610bb2565b925050600181019050610be1565b505050505050565b600061012082019050610c2c6000830184610bbf565b92915050565b600080fd5b610c4081610ab4565b8114610c4b57600080fd5b50565b600081359050610c5d81610c37565b92915050565b60008060408385031215610c7a57610c79610c32565b5b6000610c8885828601610c4e565b9250506020610c9985828601610c4e565b9150509250929050565b600081519050919050565b600082825260208201905092915050565b6000819050602082019050919050565b604082016000820151610ce56000850182610b3a565b506020820151610cf86020850182610b49565b50505050565b6000610d0a8383610ccf565b60408301905092915050565b6000602082019050919050565b6000610d2e82610ca3565b610d388185610cae565b9350610d4383610cbf565b8060005b83811015610d74578151610d5b8882610cfe565b9750610d6683610d16565b925050600181019050610d47565b5085935050505092915050565b60006020820190508181036000830152610d9b8184610d23565b905092915050565b7f4e487b7100000000000000000000000000000000000000000000000000000000600052601160045260246000fd5b6000610ddd82610ab4565b9150610de883610ab4565b9250828201905080821115610e0057610dff610da3565b5b92915050565b6000610e1182610ab4565b9150610e1c83610ab4565b9250828203905081811115610e3457610e33610da3565b5b92915050565b7f4e487b7100000000000000000000000000000000000000000000000000000000600052604160045260246000fd5b7f4e487b7100000000000000000000000000000000000000000000000000000000600052603260045260246000fd5b6000610ea382610ab4565b91507fffffffffffffffffffffffffffffffffffffffffffffffffffffffffffffffff8203610ed557610ed4610da3565b5b600182019050919050565b6000610eeb82610ab4565b915060008203610efe57610efd610da3565b5b600182039050919050565b600081519050919050565b600082825260208201905092915050565b60005b83811015610f43578082015181840152602081019050610f28565b60008484015250505050565b6000601f19601f8301169050919050565b6000610f6b82610f09565b610f758185610f14565b9350610f85818560208601610f25565b610f8e81610f4f565b840191505092915050565b60006020820190508181036000830152610fb38184610f60565b90509291505056fea26469706673582212202461cca3ff13b6cfbc97be67e92cdfa0c124a6a997629bf00b461b5912d1912e64736f6c63430008110033",
  "linkReferences": {},
  "deployedLinkReferences": {}
}