{
  "_format": "hh-sol-artifact-1",
  "contractName": "Wave3",
  "sourceName": "contracts/wave-3.sol",
  "abi": [
    {
      "inputs": [],
      "stateMutability": "nonpayable",
      "type": "constructor"
    },
    {
      "anonymous": false,
      "inputs": [
        {
          "indexed": true,
          "internalType": "address",
          "name": "waverAddr",
          "type": "address"
        },
        {
          "indexed": false,
          "internalType": "uint256",
          "name": "timestamp",
          "type": "uint256"
        }
      ],
      "name": "NewWave",
      "type": "event"
    },
    {
      "inputs": [],
      "name": "getSenderWavesCount",
      "outputs": [
        {
          "internalType": "uint256",
          "name": "",
          "type": "uint256"
        }
      ],
      "stateMutability": "view",
      "type": "function"
    },
    {
      "inputs": [],
      "name": "getTopWavers",
      "outputs": [
        {
          "internalType": "address[]",
          "name": "",
          "type": "address[]"
        },
        {
          "internalType": "uint256[]",
          "name": "",
          "type": "uint256[]"
        }
      ],
      "stateMutability": "view",
      "type": "function"
    },
    {
      "inputs": [],
      "name": "getTotalWavesCount",
      "outputs": [
        {
          "internalType": "uint256",
          "name": "",
          "type": "uint256"
        }
      ],
      "stateMutability": "view",
      "type": "function"
    },
    {
      "inputs": [
        {
          "internalType": "uint256",
          "name": "offset",
          "type": "uint256"
        },
        {
          "internalType": "uint256",
          "name": "limit",
          "type": "uint256"
        }
      ],
      "name": "getWaves",
      "outputs": [
        {
          "components": [
            {
              "internalType": "address",
              "name": "waverAddr",
              "type": "address"
            },
            {
              "internalType": "uint256",
              "name": "timestamp",
              "type": "uint256"
            }
          ],
          "internalType": "struct Wave3.Wave[]",
          "name": "",
          "type": "tuple[]"
        }
      ],
      "stateMutability": "view",
      "type": "function"
    },
    {
      "inputs": [],
      "name": "wave",
      "outputs": [],
      "stateMutability": "nonpayable",
      "type": "function"
    }
  ],
  "bytecode": "0x60806040523480156200001157600080fd5b506200005d6040518060400160405280600e81526020017f576176653320436f6e74726163740000000000000000000000000000000000008152506200006360201b6200060f1760201c565b620001ed565b62000103816040516024016200007a9190620001c9565b6040516020818303038152906040527f41304fac000000000000000000000000000000000000000000000000000000007bffffffffffffffffffffffffffffffffffffffffffffffffffffffff19166020820180517bffffffffffffffffffffffffffffffffffffffffffffffffffffffff83818316178352505050506200010660201b60201c565b50565b60008151905060006a636f6e736f6c652e6c6f679050602083016000808483855afa5050505050565b600081519050919050565b600082825260208201905092915050565b60005b838110156200016b5780820151818401526020810190506200014e565b60008484015250505050565b6000601f19601f8301169050919050565b600062000195826200012f565b620001a181856200013a565b9350620001b38185602086016200014b565b620001be8162000177565b840191505092915050565b60006020820190508181036000830152620001e5818462000188565b905092915050565b610f6880620001fd6000396000f3fe608060405234801561001057600080fd5b50600436106100575760003560e01c8063084c623a1461005c5780636fe15b441461007a5780639d9e7ef514610084578063eb847cec146100a2578063f6275056146100c1575b600080fd5b6100646100f1565b60405161007191906109a9565b60405180910390f35b61008261013b565b005b61008c610320565b60405161009991906109a9565b60405180910390f35b6100aa61032c565b6040516100b8929190610b72565b60405180910390f35b6100db60048036038101906100d69190610bda565b6104aa565b6040516100e89190610cf8565b60405180910390f35b6000600160003373ffffffffffffffffffffffffffffffffffffffff1673ffffffffffffffffffffffffffffffffffffffff16815260200190815260200160002060000154905090565b600060405180604001604052803373ffffffffffffffffffffffffffffffffffffffff16815260200142815250908060018154018082558091505060019003906000526020600020906002020160009091909190915060008201518160000160006101000a81548173ffffffffffffffffffffffffffffffffffffffff021916908373ffffffffffffffffffffffffffffffffffffffff16021790555060208201518160010155505060018060003373ffffffffffffffffffffffffffffffffffffffff1673ffffffffffffffffffffffffffffffffffffffff16815260200190815260200160002060000160008282546102369190610d49565b9250508190555042600160003373ffffffffffffffffffffffffffffffffffffffff1673ffffffffffffffffffffffffffffffffffffffff168152602001908152602001600020600101819055506102d033600160003373ffffffffffffffffffffffffffffffffffffffff1673ffffffffffffffffffffffffffffffffffffffff168152602001908152602001600020600001546106a8565b3373ffffffffffffffffffffffffffffffffffffffff167fd4039eae27a8bdb2161befb9f8627b7c1427c2515e32d699b7dc252416e719cd4260405161031691906109a9565b60405180910390a2565b60008080549050905090565b6060806000600a67ffffffffffffffff81111561034c5761034b610d7d565b5b60405190808252806020026020018201604052801561037a5781602001602082028036833780820191505090505b5090506000600a67ffffffffffffffff81111561039a57610399610d7d565b5b6040519080825280602002602001820160405280156103c85781602001602082028036833780820191505090505b50905060005b600a81101561049d576000600282600a81106103ed576103ec610dac565b5b6002020190508060000160009054906101000a900473ffffffffffffffffffffffffffffffffffffffff1684838151811061042b5761042a610dac565b5b602002602001019073ffffffffffffffffffffffffffffffffffffffff16908173ffffffffffffffffffffffffffffffffffffffff1681525050806001015483838151811061047d5761047c610dac565b5b60200260200101818152505050808061049590610ddb565b9150506103ce565b5081819350935050509091565b6060826000805490506104bd9190610e23565b8211156104d857826000805490506104d59190610e23565b91505b60008267ffffffffffffffff8111156104f4576104f3610d7d565b5b60405190808252806020026020018201604052801561052d57816020015b61051a610960565b8152602001906001900390816105125790505b50905060005b8381101561060457600081866105499190610d49565b8154811061055a57610559610dac565b5b90600052602060002090600202016040518060400160405290816000820160009054906101000a900473ffffffffffffffffffffffffffffffffffffffff1673ffffffffffffffffffffffffffffffffffffffff1673ffffffffffffffffffffffffffffffffffffffff1681526020016001820154815250508282815181106105e6576105e5610dac565b5b602002602001018190525080806105fc90610ddb565b915050610533565b508091505092915050565b6106a5816040516024016106239190610ee7565b6040516020818303038152906040527f41304fac000000000000000000000000000000000000000000000000000000007bffffffffffffffffffffffffffffffffffffffffffffffffffffffff19166020820180517bffffffffffffffffffffffffffffffffffffffffffffffffffffffff8381831617835250505050610937565b50565b60008060005b600a8310156106ec57600283600a81106106cb576106ca610dac565b5b600202016001015484116106ec5782806106e490610ddb565b9350506106ae565b600a83106106fc57505050610933565b60005b600a811015610791578573ffffffffffffffffffffffffffffffffffffffff16600282600a811061073357610732610dac565b5b6002020160000160009054906101000a900473ffffffffffffffffffffffffffffffffffffffff1673ffffffffffffffffffffffffffffffffffffffff160361077e57600192508091505b808061078990610ddb565b9150506106ff565b506000826107ac576001600a6107a79190610e23565b6107ae565b815b90505b838111156108b45760026001826107c89190610e23565b600a81106107d9576107d8610dac565b5b6002020160000160009054906101000a900473ffffffffffffffffffffffffffffffffffffffff16600282600a811061081557610814610dac565b5b6002020160000160006101000a81548173ffffffffffffffffffffffffffffffffffffffff021916908373ffffffffffffffffffffffffffffffffffffffff16021790555060026001826108699190610e23565b600a811061087a57610879610dac565b5b6002020160010154600282600a811061089657610895610dac565b5b600202016001018190555080806108ac90610f09565b9150506107b1565b5084600284600a81106108ca576108c9610dac565b5b6002020160000160006101000a81548173ffffffffffffffffffffffffffffffffffffffff021916908373ffffffffffffffffffffffffffffffffffffffff16021790555083600284600a811061092457610923610dac565b5b60020201600101819055505050505b5050565b60008151905060006a636f6e736f6c652e6c6f679050602083016000808483855afa5050505050565b6040518060400160405280600073ffffffffffffffffffffffffffffffffffffffff168152602001600081525090565b6000819050919050565b6109a381610990565b82525050565b60006020820190506109be600083018461099a565b92915050565b600081519050919050565b600082825260208201905092915050565b6000819050602082019050919050565b600073ffffffffffffffffffffffffffffffffffffffff82169050919050565b6000610a1b826109f0565b9050919050565b610a2b81610a10565b82525050565b6000610a3d8383610a22565b60208301905092915050565b6000602082019050919050565b6000610a61826109c4565b610a6b81856109cf565b9350610a76836109e0565b8060005b83811015610aa7578151610a8e8882610a31565b9750610a9983610a49565b925050600181019050610a7a565b5085935050505092915050565b600081519050919050565b600082825260208201905092915050565b6000819050602082019050919050565b610ae981610990565b82525050565b6000610afb8383610ae0565b60208301905092915050565b6000602082019050919050565b6000610b1f82610ab4565b610b298185610abf565b9350610b3483610ad0565b8060005b83811015610b65578151610b4c8882610aef565b9750610b5783610b07565b925050600181019050610b38565b5085935050505092915050565b60006040820190508181036000830152610b8c8185610a56565b90508181036020830152610ba08184610b14565b90509392505050565b600080fd5b610bb781610990565b8114610bc257600080fd5b50565b600081359050610bd481610bae565b92915050565b60008060408385031215610bf157610bf0610ba9565b5b6000610bff85828601610bc5565b9250506020610c1085828601610bc5565b9150509250929050565b600081519050919050565b600082825260208201905092915050565b6000819050602082019050919050565b604082016000820151610c5c6000850182610a22565b506020820151610c6f6020850182610ae0565b50505050565b6000610c818383610c46565b60408301905092915050565b6000602082019050919050565b6000610ca582610c1a565b610caf8185610c25565b9350610cba83610c36565b8060005b83811015610ceb578151610cd28882610c75565b9750610cdd83610c8d565b925050600181019050610cbe565b5085935050505092915050565b60006020820190508181036000830152610d128184610c9a565b905092915050565b7f4e487b7100000000000000000000000000000000000000000000000000000000600052601160045260246000fd5b6000610d5482610990565b9150610d5f83610990565b9250828201905080821115610d7757610d76610d1a565b5b92915050565b7f4e487b7100000000000000000000000000000000000000000000000000000000600052604160045260246000fd5b7f4e487b7100000000000000000000000000000000000000000000000000000000600052603260045260246000fd5b6000610de682610990565b91507fffffffffffffffffffffffffffffffffffffffffffffffffffffffffffffffff8203610e1857610e17610d1a565b5b600182019050919050565b6000610e2e82610990565b9150610e3983610990565b9250828203905081811115610e5157610e50610d1a565b5b92915050565b600081519050919050565b600082825260208201905092915050565b60005b83811015610e91578082015181840152602081019050610e76565b60008484015250505050565b6000601f19601f8301169050919050565b6000610eb982610e57565b610ec38185610e62565b9350610ed3818560208601610e73565b610edc81610e9d565b840191505092915050565b60006020820190508181036000830152610f018184610eae565b905092915050565b6000610f1482610990565b915060008203610f2757610f26610d1a565b5b60018203905091905056fea2646970667358221220f20cb0175eb2bf58cda891dccbe945ba2a8a07df255178c4a313f895808d53d764736f6c63430008110033",
  "linkReferences": {},
  "deployedLinkReferences": {}
}