{
  "_format": "hh-sol-artifact-1",
  "contractName": "Wave3",
  "sourceName": "contracts/wave-3.sol",
  "abi": [
    {
      "inputs": [],
      "stateMutability": "nonpayable",
      "type": "constructor"
    },
    {
      "anonymous": false,
      "inputs": [
        {
          "indexed": true,
          "internalType": "address",
          "name": "waverAddr",
          "type": "address"
        },
        {
          "indexed": false,
          "internalType": "uint256",
          "name": "timestamp",
          "type": "uint256"
        }
      ],
      "name": "NewWave",
      "type": "event"
    },
    {
      "inputs": [],
      "name": "getSenderWavesCount",
      "outputs": [
        {
          "internalType": "uint256",
          "name": "",
          "type": "uint256"
        }
      ],
      "stateMutability": "view",
      "type": "function"
    },
    {
      "inputs": [],
      "name": "getTopWavers",
      "outputs": [
        {
          "internalType": "address[]",
          "name": "",
          "type": "address[]"
        },
        {
          "internalType": "uint256[]",
          "name": "",
          "type": "uint256[]"
        }
      ],
      "stateMutability": "view",
      "type": "function"
    },
    {
      "inputs": [],
      "name": "getTotalWavesCount",
      "outputs": [
        {
          "internalType": "uint256",
          "name": "",
          "type": "uint256"
        }
      ],
      "stateMutability": "view",
      "type": "function"
    },
    {
      "inputs": [],
      "name": "getWaves",
      "outputs": [
        {
          "components": [
            {
              "internalType": "address",
              "name": "waverAddr",
              "type": "address"
            },
            {
              "internalType": "uint256",
              "name": "timestamp",
              "type": "uint256"
            }
          ],
          "internalType": "struct Wave3.Wave[]",
          "name": "",
          "type": "tuple[]"
        }
      ],
      "stateMutability": "view",
      "type": "function"
    },
    {
      "inputs": [],
      "name": "wave",
      "outputs": [],
      "stateMutability": "nonpayable",
      "type": "function"
    }
  ],
  "bytecode": "0x60806040523480156200001157600080fd5b506200005d6040518060400160405280600e81526020017f576176653320436f6e74726163740000000000000000000000000000000000008152506200006360201b620006001760201c565b620001ed565b62000103816040516024016200007a9190620001c9565b6040516020818303038152906040527f41304fac000000000000000000000000000000000000000000000000000000007bffffffffffffffffffffffffffffffffffffffffffffffffffffffff19166020820180517bffffffffffffffffffffffffffffffffffffffffffffffffffffffff83818316178352505050506200010660201b60201c565b50565b60008151905060006a636f6e736f6c652e6c6f679050602083016000808483855afa5050505050565b600081519050919050565b600082825260208201905092915050565b60005b838110156200016b5780820151818401526020810190506200014e565b60008484015250505050565b6000601f19601f8301169050919050565b600062000195826200012f565b620001a181856200013a565b9350620001b38185602086016200014b565b620001be8162000177565b840191505092915050565b60006020820190508181036000830152620001e5818462000188565b905092915050565b610f7080620001fd6000396000f3fe608060405234801561001057600080fd5b50600436106100575760003560e01c8063084c623a1461005c5780636fe15b441461007a5780639d9e7ef514610084578063a9d42f7e146100a2578063eb847cec146100c0575b600080fd5b6100646100df565b604051610071919061096a565b60405180910390f35b610082610129565b005b61008c6103ba565b604051610099919061096a565b60405180910390f35b6100aa6103c3565b6040516100b79190610ab3565b60405180910390f35b6100c8610482565b6040516100d6929190610c33565b60405180910390f35b6000600260003373ffffffffffffffffffffffffffffffffffffffff1673ffffffffffffffffffffffffffffffffffffffff16815260200190815260200160002060000154905090565b4262015180600260003373ffffffffffffffffffffffffffffffffffffffff1673ffffffffffffffffffffffffffffffffffffffff1681526020019081526020016000206001015461017b9190610c99565b106101bb576040517f08c379a00000000000000000000000000000000000000000000000000000000081526004016101b290610d76565b60405180910390fd5b600160405180604001604052803373ffffffffffffffffffffffffffffffffffffffff16815260200142815250908060018154018082558091505060019003906000526020600020906002020160009091909190915060008201518160000160006101000a81548173ffffffffffffffffffffffffffffffffffffffff021916908373ffffffffffffffffffffffffffffffffffffffff16021790555060208201518160010155505060016000808282546102769190610c99565b925050819055506001600260003373ffffffffffffffffffffffffffffffffffffffff1673ffffffffffffffffffffffffffffffffffffffff16815260200190815260200160002060000160008282546102d09190610c99565b9250508190555042600260003373ffffffffffffffffffffffffffffffffffffffff1673ffffffffffffffffffffffffffffffffffffffff1681526020019081526020016000206001018190555061036a33600260003373ffffffffffffffffffffffffffffffffffffffff1673ffffffffffffffffffffffffffffffffffffffff16815260200190815260200160002060000154610699565b3373ffffffffffffffffffffffffffffffffffffffff167fd4039eae27a8bdb2161befb9f8627b7c1427c2515e32d699b7dc252416e719cd426040516103b0919061096a565b60405180910390a2565b60008054905090565b60606001805480602002602001604051908101604052809291908181526020016000905b8282101561047957838290600052602060002090600202016040518060400160405290816000820160009054906101000a900473ffffffffffffffffffffffffffffffffffffffff1673ffffffffffffffffffffffffffffffffffffffff1673ffffffffffffffffffffffffffffffffffffffff168152602001600182015481525050815260200190600101906103e7565b50505050905090565b6060806000600a67ffffffffffffffff8111156104a2576104a1610d96565b5b6040519080825280602002602001820160405280156104d05781602001602082028036833780820191505090505b5090506000600a67ffffffffffffffff8111156104f0576104ef610d96565b5b60405190808252806020026020018201604052801561051e5781602001602082028036833780820191505090505b50905060005b600a8110156105f3576000600382600a811061054357610542610dc5565b5b6002020190508060000160009054906101000a900473ffffffffffffffffffffffffffffffffffffffff1684838151811061058157610580610dc5565b5b602002602001019073ffffffffffffffffffffffffffffffffffffffff16908173ffffffffffffffffffffffffffffffffffffffff168152505080600101548383815181106105d3576105d2610dc5565b5b6020026020010181815250505080806105eb90610df4565b915050610524565b5081819350935050509091565b610696816040516024016106149190610ebb565b6040516020818303038152906040527f41304fac000000000000000000000000000000000000000000000000000000007bffffffffffffffffffffffffffffffffffffffffffffffffffffffff19166020820180517bffffffffffffffffffffffffffffffffffffffffffffffffffffffff8381831617835250505050610928565b50565b60008060005b600a8310156106dd57600383600a81106106bc576106bb610dc5565b5b600202016001015484116106dd5782806106d590610df4565b93505061069f565b600a83106106ed57505050610924565b60005b600a811015610782578573ffffffffffffffffffffffffffffffffffffffff16600382600a811061072457610723610dc5565b5b6002020160000160009054906101000a900473ffffffffffffffffffffffffffffffffffffffff1673ffffffffffffffffffffffffffffffffffffffff160361076f57600192508091505b808061077a90610df4565b9150506106f0565b5060008261079d576001600a6107989190610edd565b61079f565b815b90505b838111156108a55760036001826107b99190610edd565b600a81106107ca576107c9610dc5565b5b6002020160000160009054906101000a900473ffffffffffffffffffffffffffffffffffffffff16600382600a811061080657610805610dc5565b5b6002020160000160006101000a81548173ffffffffffffffffffffffffffffffffffffffff021916908373ffffffffffffffffffffffffffffffffffffffff160217905550600360018261085a9190610edd565b600a811061086b5761086a610dc5565b5b6002020160010154600382600a811061088757610886610dc5565b5b6002020160010181905550808061089d90610f11565b9150506107a2565b5084600384600a81106108bb576108ba610dc5565b5b6002020160000160006101000a81548173ffffffffffffffffffffffffffffffffffffffff021916908373ffffffffffffffffffffffffffffffffffffffff16021790555083600384600a811061091557610914610dc5565b5b60020201600101819055505050505b5050565b60008151905060006a636f6e736f6c652e6c6f679050602083016000808483855afa5050505050565b6000819050919050565b61096481610951565b82525050565b600060208201905061097f600083018461095b565b92915050565b600081519050919050565b600082825260208201905092915050565b6000819050602082019050919050565b600073ffffffffffffffffffffffffffffffffffffffff82169050919050565b60006109dc826109b1565b9050919050565b6109ec816109d1565b82525050565b6109fb81610951565b82525050565b604082016000820151610a1760008501826109e3565b506020820151610a2a60208501826109f2565b50505050565b6000610a3c8383610a01565b60408301905092915050565b6000602082019050919050565b6000610a6082610985565b610a6a8185610990565b9350610a75836109a1565b8060005b83811015610aa6578151610a8d8882610a30565b9750610a9883610a48565b925050600181019050610a79565b5085935050505092915050565b60006020820190508181036000830152610acd8184610a55565b905092915050565b600081519050919050565b600082825260208201905092915050565b6000819050602082019050919050565b6000610b0d83836109e3565b60208301905092915050565b6000602082019050919050565b6000610b3182610ad5565b610b3b8185610ae0565b9350610b4683610af1565b8060005b83811015610b77578151610b5e8882610b01565b9750610b6983610b19565b925050600181019050610b4a565b5085935050505092915050565b600081519050919050565b600082825260208201905092915050565b6000819050602082019050919050565b6000610bbc83836109f2565b60208301905092915050565b6000602082019050919050565b6000610be082610b84565b610bea8185610b8f565b9350610bf583610ba0565b8060005b83811015610c26578151610c0d8882610bb0565b9750610c1883610bc8565b925050600181019050610bf9565b5085935050505092915050565b60006040820190508181036000830152610c4d8185610b26565b90508181036020830152610c618184610bd5565b90509392505050565b7f4e487b7100000000000000000000000000000000000000000000000000000000600052601160045260246000fd5b6000610ca482610951565b9150610caf83610951565b9250828201905080821115610cc757610cc6610c6a565b5b92915050565b600082825260208201905092915050565b7f596f7520616c7265616479207761766564206174206d6520696e20746865206c60008201527f61737420323420686f7572732e20506c65617365207265747279206c6174657260208201527f2021000000000000000000000000000000000000000000000000000000000000604082015250565b6000610d60604283610ccd565b9150610d6b82610cde565b606082019050919050565b60006020820190508181036000830152610d8f81610d53565b9050919050565b7f4e487b7100000000000000000000000000000000000000000000000000000000600052604160045260246000fd5b7f4e487b7100000000000000000000000000000000000000000000000000000000600052603260045260246000fd5b6000610dff82610951565b91507fffffffffffffffffffffffffffffffffffffffffffffffffffffffffffffffff8203610e3157610e30610c6a565b5b600182019050919050565b600081519050919050565b60005b83811015610e65578082015181840152602081019050610e4a565b60008484015250505050565b6000601f19601f8301169050919050565b6000610e8d82610e3c565b610e978185610ccd565b9350610ea7818560208601610e47565b610eb081610e71565b840191505092915050565b60006020820190508181036000830152610ed58184610e82565b905092915050565b6000610ee882610951565b9150610ef383610951565b9250828203905081811115610f0b57610f0a610c6a565b5b92915050565b6000610f1c82610951565b915060008203610f2f57610f2e610c6a565b5b60018203905091905056fea26469706673582212208b3e5bd6a9ee9601c778de8be224ab9bb14e492ba1d39f2c96af906ad13588ed64736f6c63430008110033",
  "linkReferences": {},
  "deployedLinkReferences": {}
}